:0300000002050DE9
:10002B000203A054656D700043656C632020202093
:10003B00004B656C762020202000466168722020E2
:10004B0020200020202020202020202020202020C5
:04005B002020200041
:10005F00C000788500D8FDD00022C000C0017928EB
:10006F007868D8FED9FADAF6D001D00022D29412ED
:10007F00005FC29422A2E79283A2E69282A2E59247
:10008F0081A2E4928012007C12005FA2E39283A20D
:10009F00E29282A2E19281A2E0928012007C22D2AF
:1000AF0093020084C293020084C294C0027A281281
:1000BF000069D00274331200B374331200B3743278
:1000CF001200B374281200B3740C1200B37401122F
:1000DF0000B3C0027A02120069D00222E4936006D4
:1000EF001200AEA380F622444044800200B3C0E069
:1000FF00E8C4540F44301200AEE8540F44301200DD
:04010F00AED0E0226C
:10011300C0E0C0D0C000C001C002E4F538F539F535
:100123003AF53BF53C7A20E533A2E779047830E6EB
:1001330033F608D9FA79057838E636D4F608D9F9CA
:10014300DAE5D002D001D000D0D0D0E022C0E0C0A8
:10015300D0C000C001C002E4F538F539F53AF53BEB
:10016300F53C7A20E533A2E779047830E633F608E4
:10017300D9FA79057838C0D0E6243320E70224D0B1
:1001830020E30224FDD0D033F608D9EADAD6D00230
:10019300D001D000D0D0D0E022C0E0C0D0C000C099
:1001A30001C0027A207905C3783CE613C0D030E75A
:1001B3000224D030E30224FDF618D0D0D9EC790420
:1001C3007833E613F618D9FADADBD002D001D0007F
:1001D300D0D0D0E022C0E0C0D0E5302534F530E502
:1001E300313535F531E5323536F532E5333537F529
:1001F30033D0D0D0E022C0E0C0D0C3E5309534F591
:1002030030E5319535F531E5329536F532E53395FF
:1002130037F533D0D0D0E022C0E0C0D0C3E530956D
:1002230034E5319535E5329536E53395379200D08F
:10023300D0D0E022C0E0C0D0C3E5349530E5359599
:1002430031E5369532E53795339200D0D0D0E022B0
:10025300C0E0C0D0C200C3E53495307014E53595D5
:1002630031700EE53695327008E53795337002D25A
:1002730000D0D0D0E0221202532000030202372222
:1002830012025320000302021B22C0E0C0F0C0D0C0
:10029300C000C001C002C003E5308534F0A4F8A952
:1002A300F0E5318534F0A429F9E435F0FAE5308539
:1002B30035F0A429F9E5F03AFAE433FBE532853465
:1002C300F0A42AFAE5F03BFBE5318535F0A42AFAE0
:1002D300E5F03BFBE5308536F0A42AFAE5F03BFB7D
:1002E300E5338534F0A42BFBE5328535F0A42BFBF5
:1002F300E5318536F0A42BFBE5308537F0A42BFBE5
:100303008B338A3289318830D003D002D001D000B8
:10031300D0D0D0F0D0E022C0E0C0D0C000C001C037
:1003230002C003C0047C20E4F8F9FAFBC3E53033D0
:10033300F530E53133F531E53233F532E53333F575
:1003430033E833F8E933F9EA33FAEB33FBC3E895DF
:1003530034E99535EA9536EB95374013E89534F84B
:10036300E99535F9EA9536FAEB9537FB433001DC2D
:10037300BBD004D003D002D001D000D0D0D0E02233
:1003830075C80075CDBF75CC2843C98075CBBF75C3
:10039300CA28E4F542F543439B80D2CA22C2CFB2B6
:1003A30084C0E0C0D00542E54270020543E542B493
:1003B3002C0CE543B40107D201E4F542F543D0D058
:1003C300D0E03275AC0075AD0075B30075B400753F
:1003D300B10075B200438E1043878075985253C4A1
:1003E300DF53890F438920758DF7D28EC28C438EDC
:1003F300085389F043890143B30253B4FD53E8F032
:1004030043E80775F60043F68043E10174401200A8
:10041300B3741F1200AE741F1200AE741F1200AE2D
:10042300741F1200AE741F1200AE741F1200AE745C
:100433001F1200AE741F1200AE74481200B3740092
:100443001200AE74001200AE74041200AE740212F5
:1004530000AE741F1200AE74021200AE74041200D8
:10046300AE74001200AE22C28CC28D758CBF758A29
:1004730028D28C308DFD2212046ADAFB223099FDDA
:10048300C299F59922F854F0C42430120480E85438
:100493000F243012048022E4E53BB400028028C01C
:1004A300E0740A141200F8D0E0C000A83B1200FD6B
:1004B300D000C0E0740A141200F8D0E0C0E0742049
:1004C3001200AED0E08013C0E0740B141200F8D019
:1004D300E0C0E074201200AED0E0C0E0740C14124F
:1004E30000F8D0E0C000A83A1200FDD000C0E074CC
:1004F3002E1200AED0E0C000A8391200FDD000C01B
:10050300E0740A141200F8D0E02275817F1203C64A
:100513001200B8120383D2AF753D00753E00753FDC
:1005230001754014754114753B00C0E07401141249
:1005330000F8D0E07401B42202801EB4110AC0E0B6
:100543007401141200F6D0E0C0E074001200AED0C3
:10055300E07A1912047A0480DDE4C0E07401141215
:1005630000F8D0E0C083C082C0E090004E1200EBE0
:10057300D0E0D082D083C0E07401141200F6D0E042
:10058300C083C082C0E090004E1200EBD0E0D08266
:10059300D083C0E07401141200F8D0E0C083C0829D
:1005A300C0E090002E1200EBD0E0D082D083C0E0F8
:1005B3007401141200F6D0E0C083C082C0E0900042
:1005C300331200EBD0E0D082D08320952D7A321203
:1005D300047A2095253095FD753D00753E00753FE5
:1005E30001754014754114C0E07409141200F8D069
:1005F300E0C0E074201200AED0E02085167A3212FB
:10060300047A20850E3085FDE53D04B40301E4F54D
:100613003DD201E53DB4001CC0E07401141200F6A4
:10062300D0E0C083C082C0E09000331200EBD0E082
:10063300D082D083E53DB4011CC0E07401141200E4
:10064300F6D0E0C083C082C0E090003C1200EBD043
:10065300E0D082D083E53DB4021CC0E074011412E3
:1006630000F6D0E0C083C082C0E09000451200EBEA
:10067300D0E0D082D08320B00280030207117A3207
:1006830012047A20B002800302071130B0FDE53E68
:1006930004C0E07409141200F8D0E0C0E074011241
:1006A30000AED0E0B40118C0E0740B141200F8D00F
:1006B300E0C0E074001200AED0E07AC812047AB44D
:1006C3000218C0E0740C141200F8D0E0C0E074000B
:1006D3001200AED0E07AC812047AB40318C0E074F2
:1006E3000D141200F8D0E0C0E074001200AED0E0A8
:1006F3007AC812047AB40414E4C0E0740914120032
:10070300F8D0E0C0E074201200AED0E0F53E2097B0
:100713000280030207547A3212047A20970280037C
:100723000207543097FDD201E53EB4010AE53F04C8
:10073300B40B027401F53FE53EB40209E54004B48D
:100743007F01E4F540B40309E54104B47F01E4F516
:1007530041209602800302079C7A3212047A209683
:1007630002800302079C3096FDD201E53EB4010BE3
:10077300E53F9401B40002740AF53FE53EB4020B71
:10078300E5409401B400027414F540B4030BE54151
:100793009401B400027414F5412001030205CDC293
:1007A300EFD2EE30EFFDE5C3C4C0E0540FF9D0E063
:1007B30054F045C2F88830893175320075330075BD
:1007C300347C7535C475360075370012028D753467
:1007D300FF75350F75360075370012031A753454DB
:1007E30075356F7536007537001201F97534647508
:1007F300350075360075370012028D753440753536
:100803004275360F7537001201F9E4B53F028012C5
:1008130075344075354275360F7537001201D804AB
:1008230080E975348075358475361E75370012017D
:10083300F9E4B5400280127534A07535867536012A
:100843007537001201D80480E975344075350D758C
:1008530036037537001201F9E4B54102801275348D
:10086300107535277536007537001201D80480E9F5
:10087300E53DB4010F7534EC7535AD753629753723
:10088300001201D8E53DB4022D75340975350075A4
:10089300360075370012028D7534057535007536CF
:1008A3000075370012031A7534007535E275360486
:1008B3007537001201D8E53B120488E53A12048823
:1008C300E539120488740D120480740A120480122C
:0A08D300011312049AC2010205CDC0
:00000001FF
